{
  "transactions": [
    {
      "hash": "0xcef8ef4651b93b990007ca4ac85f84637299d5b2aa4a313ab4ee72a2d4a54d49",
      "transactionType": "CALL",
      "contractName": null,
      "contractAddress": "0x9ddfaca8183c41ad55329bdeed9f6a8d53168b1b",
      "function": "addConsumer(uint256,address)",
      "arguments": [
        "92899835631459027294541149648382698302472951653827755408127349112050177594964",
        "0xB732c92927DdA8adbF633Ffca7A5b386A0B9cF2B"
      ],
      "transaction": {
        "from": "0x0aa721a6fd496742bb46c1dd6f857661af2a9699",
        "to": "0x9ddfaca8183c41ad55329bdeed9f6a8d53168b1b",
        "gas": "0x1a54f",
        "value": "0x0",
        "input": "0xbec4c08ccd63719138781f2b95f1a610c9a18c0ca1a73dcbd1e5e31c0d4c50c8be40d654000000000000000000000000b732c92927dda8adbf633ffca7a5b386a0b9cf2b",
        "nonce": "0x3e",
        "chainId": "0xaa36a7"
      },
      "additionalContracts": [],
      "isFixedGasLimit": false
    }
  ],
  "receipts": [
    {
      "status": "0x1",
      "cumulativeGasUsed": "0x19397cd",
      "logs": [
        {
          "address": "0x9ddfaca8183c41ad55329bdeed9f6a8d53168b1b",
          "topics": [
            "0x1e980d04aa7648e205713e5e8ea3808672ac163d10936d36f91b2c88ac1575e1",
            "0xcd63719138781f2b95f1a610c9a18c0ca1a73dcbd1e5e31c0d4c50c8be40d654"
          ],
          "data": "0x000000000000000000000000b732c92927dda8adbf633ffca7a5b386a0b9cf2b",
          "blockHash": "0x47b0072d2d55adf908bc6e01f0aaa7bb4695a947690ba03f1795afe7782692df",
          "blockNumber": "0x78bdea",
          "blockTimestamp": "0x67d6886c",
          "transactionHash": "0xcef8ef4651b93b990007ca4ac85f84637299d5b2aa4a313ab4ee72a2d4a54d49",
          "transactionIndex": "0xd1",
          "logIndex": "0x1bd",
          "removed": false
        }
      ],
      "logsBloom": "0x00000000000000000000000000000080000000000020000000000000000000000000000000000000000000000000000000000000000000000000000000000000000000000000000000000000000000000000000000000001000000000000000008000000000000000000000000000000000000000000000000002000000000000004000000000000000000010800000000000000000000000000000000000000000000000000000000000000000000000000000000000000000000000000000000000000000000000000000000000000000000000000000000000000000000000000000000000000008000000000000000000000000000000000000000000000",
      "type": "0x2",
      "transactionHash": "0xcef8ef4651b93b990007ca4ac85f84637299d5b2aa4a313ab4ee72a2d4a54d49",
      "transactionIndex": "0xd1",
      "blockHash": "0x47b0072d2d55adf908bc6e01f0aaa7bb4695a947690ba03f1795afe7782692df",
      "blockNumber": "0x78bdea",
      "gasUsed": "0x13106",
      "effectiveGasPrice": "0x13b8d90e",
      "from": "0x0aa721a6fd496742bb46c1dd6f857661af2a9699",
      "to": "0x9ddfaca8183c41ad55329bdeed9f6a8d53168b1b",
      "contractAddress": null
    }
  ],
  "libraries": [],
  "pending": [],
  "returns": {},
  "timestamp": 1742112876,
  "chain": 11155111,
  "commit": "3d1f2e2"
}