{
  "transactions": [
    {
      "hash": "0x0c793854d4f2379eed59693494398b1f245023afbbb9132101f9b6600748477f",
      "transactionType": "CALL",
      "contractName": null,
      "contractAddress": "0x9ddfaca8183c41ad55329bdeed9f6a8d53168b1b",
      "function": "addConsumer(uint256,address)",
      "arguments": [
        "92899835631459027294541149648382698302472951653827755408127349112050177594964",
        "0x585DE69EF9CBe3b652Df0a3F55d322CC659F7747"
      ],
      "transaction": {
        "from": "0x0aa721a6fd496742bb46c1dd6f857661af2a9699",
        "to": "0x9ddfaca8183c41ad55329bdeed9f6a8d53168b1b",
        "gas": "0x1a54f",
        "value": "0x0",
        "input": "0xbec4c08ccd63719138781f2b95f1a610c9a18c0ca1a73dcbd1e5e31c0d4c50c8be40d654000000000000000000000000585de69ef9cbe3b652df0a3f55d322cc659f7747",
        "nonce": "0x4c",
        "chainId": "0xaa36a7"
      },
      "additionalContracts": [],
      "isFixedGasLimit": false
    }
  ],
  "receipts": [
    {
      "status": "0x1",
      "cumulativeGasUsed": "0x5e7a36",
      "logs": [
        {
          "address": "0x9ddfaca8183c41ad55329bdeed9f6a8d53168b1b",
          "topics": [
            "0x1e980d04aa7648e205713e5e8ea3808672ac163d10936d36f91b2c88ac1575e1",
            "0xcd63719138781f2b95f1a610c9a18c0ca1a73dcbd1e5e31c0d4c50c8be40d654"
          ],
          "data": "0x000000000000000000000000585de69ef9cbe3b652df0a3f55d322cc659f7747",
          "blockHash": "0xc54822b234cd05257eb424ca9bfc043c79ba9c1ef25668a044d862a9d2faf1c8",
          "blockNumber": "0x7900fc",
          "blockTimestamp": "0x67d9c4cc",
          "transactionHash": "0x0c793854d4f2379eed59693494398b1f245023afbbb9132101f9b6600748477f",
          "transactionIndex": "0x3e",
          "logIndex": "0x51",
          "removed": false
        }
      ],
      "logsBloom": "0x00000000000000000000000000000080000000000020000000000000000000000000000000000000000000000000000000000000000000000000000000000000000000000000000000000000000000000000000000000001000000000000000008000000000000000000000000000000000000000000000000002000000000000004000000000000000000010800000000000000000000000000000000000000000000000000000000000000000000000000000000000000000000000000000000000000000000000000000000000000000000000000000000000000000000000000000000000000008000000000000000000000000000000000000000000000",
      "type": "0x2",
      "transactionHash": "0x0c793854d4f2379eed59693494398b1f245023afbbb9132101f9b6600748477f",
      "transactionIndex": "0x3e",
      "blockHash": "0xc54822b234cd05257eb424ca9bfc043c79ba9c1ef25668a044d862a9d2faf1c8",
      "blockNumber": "0x7900fc",
      "gasUsed": "0x13106",
      "effectiveGasPrice": "0x4520fe",
      "from": "0x0aa721a6fd496742bb46c1dd6f857661af2a9699",
      "to": "0x9ddfaca8183c41ad55329bdeed9f6a8d53168b1b",
      "contractAddress": null
    }
  ],
  "libraries": [],
  "pending": [],
  "returns": {},
  "timestamp": 1742324941,
  "chain": 11155111,
  "commit": "3d1f2e2"
}