{
  "transactions": [
    {
      "hash": "0x43b4e25cd3678c7a258dbc150105892ed21bc23fcc1e92656934f3d74e120748",
      "transactionType": "CALL",
      "contractName": null,
      "contractAddress": "0x779877a7b0d9e8603169ddbd7836e478b4624789",
      "function": "transferAndCall(address,uint256,bytes)",
      "arguments": [
        "0x9DdfaCa8183c41ad55329BdeeD9F6A8d53168B1B",
        "3000000000000000000",
        "0xcd63719138781f2b95f1a610c9a18c0ca1a73dcbd1e5e31c0d4c50c8be40d654"
      ],
      "transaction": {
        "from": "0x0aa721a6fd496742bb46c1dd6f857661af2a9699",
        "to": "0x779877a7b0d9e8603169ddbd7836e478b4624789",
        "gas": "0x14cbb",
        "value": "0x0",
        "input": "0x4000aea00000000000000000000000009ddfaca8183c41ad55329bdeed9f6a8d53168b1b00000000000000000000000000000000000000000000000029a2241af62c000000000000000000000000000000000000000000000000000000000000000000600000000000000000000000000000000000000000000000000000000000000020cd63719138781f2b95f1a610c9a18c0ca1a73dcbd1e5e31c0d4c50c8be40d654",
        "nonce": "0x3f",
        "chainId": "0xaa36a7"
      },
      "additionalContracts": [],
      "isFixedGasLimit": false
    }
  ],
  "receipts": [
    {
      "status": "0x1",
      "cumulativeGasUsed": "0xcbe333",
      "logs": [
        {
          "address": "0x779877a7b0d9e8603169ddbd7836e478b4624789",
          "topics": [
            "0xddf252ad1be2c89b69c2b068fc378daa952ba7f163c4a11628f55a4df523b3ef",
            "0x0000000000000000000000000aa721a6fd496742bb46c1dd6f857661af2a9699",
            "0x0000000000000000000000009ddfaca8183c41ad55329bdeed9f6a8d53168b1b"
          ],
          "data": "0x00000000000000000000000000000000000000000000000029a2241af62c0000",
          "blockHash": "0xb992a177a8a83c6c174090349f96c8a39c27d4e1a61a3fd79866b93f14f3dd0d",
          "blockNumber": "0x78c349",
          "blockTimestamp": "0x67d6cca0",
          "transactionHash": "0x43b4e25cd3678c7a258dbc150105892ed21bc23fcc1e92656934f3d74e120748",
          "transactionIndex": "0x96",
          "logIndex": "0xf0",
          "removed": false
        },
        {
          "address": "0x779877a7b0d9e8603169ddbd7836e478b4624789",
          "topics": [
            "0xe19260aff97b920c7df27010903aeb9c8d2be5d310a2c67824cf3f15396e4c16",
            "0x0000000000000000000000000aa721a6fd496742bb46c1dd6f857661af2a9699",
            "0x0000000000000000000000009ddfaca8183c41ad55329bdeed9f6a8d53168b1b"
          ],
          "data": "0x00000000000000000000000000000000000000000000000029a2241af62c000000000000000000000000000000000000000000000000000000000000000000400000000000000000000000000000000000000000000000000000000000000020cd63719138781f2b95f1a610c9a18c0ca1a73dcbd1e5e31c0d4c50c8be40d654",
          "blockHash": "0xb992a177a8a83c6c174090349f96c8a39c27d4e1a61a3fd79866b93f14f3dd0d",
          "blockNumber": "0x78c349",
          "blockTimestamp": "0x67d6cca0",
          "transactionHash": "0x43b4e25cd3678c7a258dbc150105892ed21bc23fcc1e92656934f3d74e120748",
          "transactionIndex": "0x96",
          "logIndex": "0xf1",
          "removed": false
        },
        {
          "address": "0x9ddfaca8183c41ad55329bdeed9f6a8d53168b1b",
          "topics": [
            "0x1ced9348ff549fceab2ac57cd3a9de38edaaab274b725ee82c23e8fc8c4eec7a",
            "0xcd63719138781f2b95f1a610c9a18c0ca1a73dcbd1e5e31c0d4c50c8be40d654"
          ],
          "data": "0x000000000000000000000000000000000000000000000003c9f2fe7d7eeb67c2000000000000000000000000000000000000000000000003f3952298751767c2",
          "blockHash": "0xb992a177a8a83c6c174090349f96c8a39c27d4e1a61a3fd79866b93f14f3dd0d",
          "blockNumber": "0x78c349",
          "blockTimestamp": "0x67d6cca0",
          "transactionHash": "0x43b4e25cd3678c7a258dbc150105892ed21bc23fcc1e92656934f3d74e120748",
          "transactionIndex": "0x96",
          "logIndex": "0xf2",
          "removed": false
        }
      ],
      "logsBloom": "0x00000004000000000000000000000000000000000020000000000000020000000000000000000000000000000000000000004000000000000000000000000000000000000000080000000008000000000000000000000000000020000020000008000000000000000000000000000000000000000100000000000010000040000004000000000000000000010800800000000020000000000000000000000000000000000000000000000000010000000000000000000000000004000000000000000002000000000000000000000000000000000000000100000000000000000010000000000000808000000000000000000000000000000000000000000000",
      "type": "0x2",
      "transactionHash": "0x43b4e25cd3678c7a258dbc150105892ed21bc23fcc1e92656934f3d74e120748",
      "transactionIndex": "0x96",
      "blockHash": "0xb992a177a8a83c6c174090349f96c8a39c27d4e1a61a3fd79866b93f14f3dd0d",
      "blockNumber": "0x78c349",
      "gasUsed": "0xf0e5",
      "effectiveGasPrice": "0xdd41ebfd",
      "from": "0x0aa721a6fd496742bb46c1dd6f857661af2a9699",
      "to": "0x779877a7b0d9e8603169ddbd7836e478b4624789",
      "contractAddress": null
    }
  ],
  "libraries": [],
  "pending": [],
  "returns": {},
  "timestamp": 1742130335,
  "chain": 11155111,
  "commit": "3d1f2e2"
}