{
  "transactions": [
    {
      "hash": "0x22a98f95e2ebb4aa439e56b05c07c1b88a746dadc8e716a1015772ba1451df18",
      "transactionType": "CALL",
      "contractName": null,
      "contractAddress": "0x9ddfaca8183c41ad55329bdeed9f6a8d53168b1b",
      "function": "addConsumer(uint256,address)",
      "arguments": [
        "92899835631459027294541149648382698302472951653827755408127349112050177594964",
        "0x5972eb37cb9aaa50FBe3Ed904FeC5c11f6b6f848"
      ],
      "transaction": {
        "from": "0x0aa721a6fd496742bb46c1dd6f857661af2a9699",
        "to": "0x9ddfaca8183c41ad55329bdeed9f6a8d53168b1b",
        "gas": "0x1a54f",
        "value": "0x0",
        "input": "0xbec4c08ccd63719138781f2b95f1a610c9a18c0ca1a73dcbd1e5e31c0d4c50c8be40d6540000000000000000000000005972eb37cb9aaa50fbe3ed904fec5c11f6b6f848",
        "nonce": "0x54",
        "chainId": "0xaa36a7"
      },
      "additionalContracts": [],
      "isFixedGasLimit": false
    }
  ],
  "receipts": [
    {
      "status": "0x1",
      "cumulativeGasUsed": "0x82b59d",
      "logs": [
        {
          "address": "0x9ddfaca8183c41ad55329bdeed9f6a8d53168b1b",
          "topics": [
            "0x1e980d04aa7648e205713e5e8ea3808672ac163d10936d36f91b2c88ac1575e1",
            "0xcd63719138781f2b95f1a610c9a18c0ca1a73dcbd1e5e31c0d4c50c8be40d654"
          ],
          "data": "0x0000000000000000000000005972eb37cb9aaa50fbe3ed904fec5c11f6b6f848",
          "blockHash": "0x98583ff61b8b53aea571a65746d64de8ecbc9ce0363057fadeb0cc6020cd5bf4",
          "blockNumber": "0x790175",
          "blockTimestamp": "0x67d9ca78",
          "transactionHash": "0x22a98f95e2ebb4aa439e56b05c07c1b88a746dadc8e716a1015772ba1451df18",
          "transactionIndex": "0x57",
          "logIndex": "0x78",
          "removed": false
        }
      ],
      "logsBloom": "0x00000000000000000000000000000080000000000020000000000000000000000000000000000000000000000000000000000000000000000000000000000000000000000000000000000000000000000000000000000001000000000000000008000000000000000000000000000000000000000000000000002000000000000004000000000000000000010800000000000000000000000000000000000000000000000000000000000000000000000000000000000000000000000000000000000000000000000000000000000000000000000000000000000000000000000000000000000000008000000000000000000000000000000000000000000000",
      "type": "0x2",
      "transactionHash": "0x22a98f95e2ebb4aa439e56b05c07c1b88a746dadc8e716a1015772ba1451df18",
      "transactionIndex": "0x57",
      "blockHash": "0x98583ff61b8b53aea571a65746d64de8ecbc9ce0363057fadeb0cc6020cd5bf4",
      "blockNumber": "0x790175",
      "gasUsed": "0x13106",
      "effectiveGasPrice": "0x5d8a9d",
      "from": "0x0aa721a6fd496742bb46c1dd6f857661af2a9699",
      "to": "0x9ddfaca8183c41ad55329bdeed9f6a8d53168b1b",
      "contractAddress": null
    }
  ],
  "libraries": [],
  "pending": [],
  "returns": {},
  "timestamp": 1742326392,
  "chain": 11155111,
  "commit": "3d1f2e2"
}